:020000040800F2
:10000000800A002099010008F5210008491E000817
:100010007D2100083B050008492900080000000078
:10002000000000000000000000000000D1220008D5
:10003000E305000800000000F72100086124000823
:10004000B3010008B3010008B3010008B3010008C0
:10005000B3010008B3010008B3010008B3010008B0
:10006000B3010008B3010008B3010008B3010008A0
:100070003D05000849050008B3010008B301000868
:10008000B3010008B3010008B3010008B301000880
:10009000B3010008B3010008B3010008B301000870
:1000A000B3010008B3010008B3010008B301000860
:1000B000B3010008B3010008B3010008B301000850
:1000C000B3010008B3010008B3010008B301000840
:1000D000B3010008B3010008B30100083D2900087E
:1000E0009B060008B3010008B301000800F002F805
:1000F00000F042F80AA090E8000C82448344AAF180
:100100000107DA4501D100F037F8AFF2090EBAE87D
:100110000F0013F0010F18BFFB1A43F0010318473B
:10012000E42A0000042B0000103A24BF78C878C1EC
:10013000FAD8520724BF30C830C144BF04680C60ED
:10014000704700000023002400250026103A28BF35
:1001500078C1FBD8520728BF30C148BF0B60704739
:10016000642900F0AB80732900F0A981002070475A
:100170001FB51FBD10B510BD00F0A5F91146FFF762
:10018000F7FF02F070FC00F0C3F903B4FFF7F2FFD1
:1001900003BC00F0CBF9000009488047094800473C
:1001A000FEE7FEE7FEE7FEE7FEE7FEE7FEE7FEE727
:1001B000FEE7FEE704480549054A064B7047000084
:1001C000C1240008ED00000880040020800A0020FF
:1001D00080060020800600200FB41CB5074B06AA3D
:1001E0007B4469460090059800F03FF9002069467D
:1001F00000F04EF91CBC5DF814FB0000AD020000DD
:100200002DE9F0410E460446002020622046E168B8
:10021000884730B3252805D0D4E901219047206ACA
:10022000401CF2E7E168204600278847050018D007
:10023000A5F14100192802D820354FF40067324655
:10024000294620462760FFF78BFF40B1012804D0E4
:10025000F61D26F007060836D8E7361DD6E72846ED
:10026000DAE7206ABDE8F08170B50C460546012A40
:1002700005D02878800600D5EA69002302E0012332
:1002800005E05B1C934202D2E05C0028F9D1A8692A
:10029000E618C01AA861286A184428622846AFF3F5
:1002A000008004E0D5E9012114F8010B9047B44225
:1002B000F8D32846AFF3008070BD00002DE9F0416F
:1002C0000646002410687529314616A510D0AFF3F4
:1002D0000080002802DA404213A507E031688A074F
:1002E00001D512A502E0490704D511A5012401E0BA
:1002F000AFF3008000210A2206F1240709E0B0FBD9
:10030000F2FCB0FBF2F302FB1C00303078541846CC
:10031000491C0028F3D123462A463046BDE8F04167
:1003200000F044B8000000002D0000002B00000089
:100330002000000030B505460B462A4613F8014B55
:1003400012F8010B08B1A042F8D01CB1002802D06D
:100350006D1CF1E7284630BD4FF0000200B5134692
:1003600094469646203922BFA0E80C50A0E80C50D5
:10037000B1F12001BFF4F7AF090728BFA0E80C5086
:1003800048BF0CC05DF804EB890028BF40F8042B7F
:1003900008BF704748BF20F8022B11F0804F18BFEC
:1003A00000F8012B70477047704770472DE9F04700
:1003B0000D4699469246044600F1240801688806D5
:1003C00004D5E06921F01001216000E00120A8427D
:1003D00001DD471B00E00027A1697A1902EB090043
:1003E000081AA0612078C00602D42046AFF300802E
:1003F000002608E0D4E901211AF806009047206A97
:10040000401C761C20624E45F4DB2078C0060AD5DD
:100410002046AFF3008006E0D4E901213020904768
:10042000206A401C2062381EA7F10107F4DC07E0B7
:10043000D4E9012118F805009047206A401C206289
:10044000281EA5F10105F3DC2046AFF300802078DB
:10045000000602D50220BDE8F0870120FBE700007E
:1004600001694A1C02610878704700B58FB0CDE978
:1004700001310021059105497944CDE90310114668
:100480006846FFF7BDFE0FB000BD0000E5FFFFFFAF
:100490000A6802F8010B0A60704710B5436913B18E
:1004A000AFF3008001E0FFF7DFFE012010BD1278FE
:1004B00000F124010A7000224A700122EDE7116860
:1004C0004FF0FF32E9E7754600F02CF8AE46050024
:1004D0006946534620F00700854618B020B5FFF75F
:1004E00069FEBDE820404FF000064FF000074FF0D6
:1004F00000084FF0000B21F00701AC46ACE8C00942
:10050000ACE8C009ACE8C009ACE8C0098D4670474A
:1005100010B50446AFF300802046BDE81040FFF759
:1005200034BE000000487047200400200149182014
:10053000ABBEFEE7260002007047FEE7014800F070
:1005400069B90000DC030020014800F063B9000035
:100550009803002008B50C484FF400530246590098
:1005600001F0B8FE00208DF8000069460E2001F071
:100570006CFC9DF8000020F004018DF800100E20A6
:1005800001F089FC08BD00000010014038B50446A8
:1005900000208DF800006946022001F056FC08B1E9
:1005A000012038BD9DF8000002F054FAA0706946A1
:1005B000012001F04AFC08B1022038BD9DF800007E
:1005C00002F048FA60706946002001F03EFC08B174
:1005D000032038BD9DF8000002F03CFA2070002096
:1005E00038BD704710B504460279C38901680A48CE
:1005F00001F095FBFF210948FFF7AEFEE289217B60
:10060000064800F057F80548A168FFF793FE08B1C7
:10061000002010BD012010BD500300201C0100204F
:100620002DE9F0411D46164607460C460B46134A77
:1006300013A11548FFF7D0FD134901F11100016026
:10064000102101710D49C91E8160162101736421B9
:10065000C181FFF7C7FF10B10120BDE8F08164231D
:1006600022463946094801F05AFB4FF47A7229466E
:10067000304600F01FF800BFEFE70000442B0008F1
:10068000257325640D0A00001B0200205003002082
:1006900010B501F057FD002010BD10B54FF480508B
:1006A00000F0C8F9BDE810404FF4004000F0C2B9B6
:1006B00072B6FEE713460A460146014801F0D8BA71
:1006C0005003002010B5FFF7E3FF98B91248FFF779
:1006D00089FF78B91148FFF785FF58B91048FFF72F
:1006E00081FF38B90F48FFF77DFF18B90E48FFF7B3
:1006F00079FF08B1002010BD0B48FF230B4A3021C1
:100700003038FFF78DFF084908481031FFF712FE17
:1007100007490860012010BD982B0008A82B00088D
:10072000B82B0008C82B0008282B00081C0000204C
:100730000000002010B590F821100022022905D0F9
:100740000421816380F82020012010BD01680B681E
:1007500023F00E030B6001680B6823F001030B60AC
:1007600090F84030012404FA03F1C36B596080F81B
:10077000214080F82020104610BD000010B590F8F0
:1007800021100024022903D00421816301243DE0CB
:1007900001680A6822F00E020A6001680A6822F005
:1007A00001020A601A4A0168914201D1012121E047
:1007B000174A1432914201D110211BE0144A283209
:1007C000914201D1891515E0114A3C32914201D183
:1007D00089140FE00E4A5032914202D14FF4803119
:1007E00008E00B4A6432914202D14FF4801101E0DB
:1007F0004FF08071064A083A5160012180F82110BB
:10080000002180F82010416B01B18847204610BDBF
:10081000080002402DE9F05FC16B0B6801680A68AF
:10082000046C4FF0040C0CFA04FC4A4DDFF828A1CC
:100830004A4E4B4FDFF82CB1DFF82CE11CEA030FD6
:100840002DD05FEA427C2AD50A68920603D40A6852
:1008500022F004020A600168A94201D1042119E0D2
:10086000514501D1402115E0B14202D14FF48061E0
:1008700010E0B94202D14FF480410BE0594502D15A
:100880004FF4802106E0714502D14FF4800101E070
:100890004FF080612F4A083A5160C16A3BE04FF047
:1008A000020808FA04F818EA030F4FF000094FF0A5
:1008B000010C35D05FEA827832D50A68920605D4F9
:1008C0000A6822F00A020A6080F821C00168A94281
:1008D00001D1022119E0514501D1202115E0B14299
:1008E00002D14FF4007110E0B94202D14FF400512F
:1008F0000BE0594502D14FF4003106E0714502D1B9
:100900004FF4001101E04FF00071124A083A5160B3
:1009100080F82090816A00291AD0BDE8F05F08476E
:100920000825A5401D4213D0120711D50A6822F0F0
:100930000E020A6090F84010C26B0CFA01F151608F
:10094000C0F838C080F821C080F82090016BE2E741
:10095000BDE8F09F080002401C0002403000024049
:1009600044000240580002406C00024030B528B3F9
:1009700002C8134A14230A44B2FBF3F29200C26382
:10098000104A8263022242770B6843F6F072934367
:10099000D0E900242243D0E902452C4322430469D4
:1009A000224344692243846922431A430A60002196
:1009B0004163012242770177084630BD012030BDF6
:1009C000F8FFFDBF0000024070B5044600F02EF9AC
:1009D0000546601C02D004480078044400F026F963
:1009E000401BA042FAD370BD0C00002070B54FF040
:1009F000E02500216C69094AAB6912785043AA6965
:100A00009A42FCD002D2A3EB020302E0A4EB02065E
:100A10003344194413468142F1D370BD08000020CD
:100A2000B0F5004F01D000BF70470148FFF7AEBDE1
:100A30003C020020044910B50A68024202D0086056
:100A4000FFF7EEFF10BD0000140401402DE9F84F40
:100A5000DFF8A4910024A9F1040B23464FF00F08FE
:100A600009F1040AABF1040EBEE00127A7403A40A9
:100A7000BA4272D1DFF884C14D68A5EB0C0665451A
:100A80002BD00DDC032D34D005DC35B3012D19D06E
:100A9000022D2FD11BE0112D16D0122D2AD119E0D5
:100AA000B6F5881F19D006DCB6F5803F15D0B6F52F
:100AB000801F1FD111E0B6F5001F0ED0B6F5041F40
:100AC00018D10AE0CB6815E0CB681B1D12E0CB689B
:100AD00008330FE0CB680C330CE08B682BB1012B93
:100AE0004FF0080303D0476104E0042302E00761EC
:100AF00000E00023FF2A01D8064601E000F10406C9
:100B00004FEA840501D9A5F12005376808FA05FCEC
:100B100027EA0C0703FA05F547EA050737604D6831
:100B2000ED0060D5364DAE6946F00106AE61AD69A7
:100B300024F0030605F001050095324D7719BE68D3
:100B4000A5072D0F08FA05FC26EA0C06DFF8B8C049
:100B5000604503D14FF0000C17E044E0DFF8ACC073
:100B6000604502D14FF0010C0FE0DFF8A4C06045F2
:100B700002D14FF0020C08E0DFF898C0604502D1C6
:100B80004FF0030C01E04FF0040C0CFA05FC4CEAAA
:100B9000060CC7F808C04D68D9F80060ED024D4654
:100BA00001D5164300E096432E604D68DAF80060E8
:100BB000AD02554601D5164300E096432E604D68C0
:100BC000DBF80060AD035D4601D5164300E09643B7
:100BD0002E604D68DEF80060ED03754601D51643C2
:100BE00000E096432E60641C0A6832FA04F57FF434
:100BF0003CAFBDE8F88F0000080401400000111070
:100C0000001002400000014000080140000C0140BB
:100C100000100140001401408068084000D001200D
:100C200070470AB1016170470904FBE70148806819
:100C3000704700000C0000200248816802781144CF
:100C4000816070470C000020074810B5016841F032
:100C500010010160032000F06DF80F2000F006F88D
:100C600000F024F8002010BD0020024070B50D4DAA
:100C700004464FF47A712878B1FBF0F00A4909680C
:100C8000B1FBF0F000F03DFC48B9102C07D2002277
:100C90002146501E00F02EF800206C6070BD01202F
:100CA00070BD00000C00002018000020094808B5A5
:100CB000816941F001018161816901F001010091C7
:100CC000C16941F08051C161C06900F0805000905D
:100CD00008BD000000100240002809DB00F01F02E0
:100CE000012191404009800000F1E020C0F800118E
:100CF00070470000F0B40E4B1B68C3F30223C3F12E
:100D00000704042C00D904241D1D072D01D2002343
:100D100000E0DB1E012606FA04F56D1E0D409D4025
:100D20009E40761E164045EA0601F0BC01F082BEE8
:100D30000CED00E0064A00F0070110684FF6FF03D3
:100D4000184040EA01200349084310607047000042
:100D50000CED00E00000FA052DE9F0470D46040017
:100D600067D0DFF81881D8F8000000F00700A8422B
:100D70000CD2D8F8001021F007012943C8F8001060
:100D8000D8F8000000F00700A84252D120683C4E7D
:100D9000810712D5400703D5706840F4E0607060A9
:100DA0002078000703D5706840F460507060706868
:100DB000A16820F0F000084370602078C00727D0B9
:100DC0006068012810D03168022810D089070029F6
:100DD0002FDA716821F0030101437160FFF726FFEC
:100DE000074641F288390CE031688903EFE7890151
:100DF000EDE7FFF71BFFC11B494502D90320BDE802
:100E0000F0877068616800F00C00B0EB810FF0D1E2
:100E1000D8F80010404601F00701A9420BD901683B
:100E200021F0070129430160006800F00700A84293
:100E300001D00120E3E72078400705D57068E1681C
:100E400020F4E060084370602078000706D57068E1
:100E5000216920F4605040EAC100706000F038F869
:100E60007168084AC1F30311515CC8400649086023
:100E700006480068FFF7FAFE0020C0E700200240A5
:100E800000100240EA2B000818000020100000208B
:100E90000448054900684968044AC1F30221515CCD
:100EA000C84070471800002000100240FA2B0008CC
:100EB0000448054900684968044AC1F3C221515CED
:100EC000C84070471800002000100240FA2B0008AC
:100ED0000E4B59680E4801F00C02042A11D0082A62
:100EE0000FD10C48C1F38342C903805C0AD559680D
:100EF000084AC1F34041921E515C054A5043B0FB81
:100F0000F1F0704704494843704700000010024068
:100F100000127A00DA2B000800093D002DE9F84F95
:100F200004006FD02078BE4DC00747D06868C0F37A
:100F30008100012807D06868C0F38100022809D128
:100F40006868C00306D52868800337D56068002824
:100F5000E7D033E06068B0F5803F0BD010B1B0F55A
:100F6000A02F11D0286820F480302860286820F451
:100F7000802002E0286840F480302860606888B1F2
:100F8000FFF754FE064609E0286840F480202860F8
:100F9000F0E7FFF74BFE801B642873D828688003B6
:100FA000F7D50BE0FFF742FE064604E0FFF73EFEF2
:100FB000801B6428F1D828688003F7D42078DFF8F4
:100FC000648280074FF0010A4FF0000939D5686844
:100FD00010F00C0F07D06868C0F38100022809D117
:100FE0006868C00306D42868800714D520690128E2
:100FF00008D110E02069B0B1C8F800A0FFF716FED4
:10100000064605E007E1FFF711FE801B0228C4D861
:1010100028688007F7D52868616920F0F80040EA61
:10102000C10028600DE0C8F80090FFF7FFFD0646FC
:1010300004E0FFF7FBFD801B022823D82868800707
:10104000F7D4207800072CD57748A169D9B1C0F82A
:1010500000A0FFF7EBFD064604E0FFF7E7FD801B6D
:1010600002280FD8686A8007F7D570484FF4FA5104
:101070000068B0FBF1F0009000BF0098411E0091A5
:10108000FAD20EE07CE0C0F80090FFF7CFFD0646F4
:1010900004E0FFF7CBFD801B022871D8686A800747
:1010A000F7D4207840075BD5E8690027C00008D452
:1010B000E86940F08050E861E869012700F080505D
:1010C00000905B480168C90511D40168834641F46A
:1010D00080710160FFF7AAFD064604E0FFF7A6FD58
:1010E000801B64284CD8DBF80000C005F6D5E0680A
:1010F00001280AD008B1052813D0286A20F0010081
:101100002862286A20F0040002E0286A40F001000A
:101110002862E06841F2883B88B1FFF787FD064608
:1011200009E0286A40F004002862EEE7FFF77EFD40
:10113000811B59455BD8286A8007F7D50BE0FFF77C
:1011400075FD064604E0FFF771FD811B59454ED839
:10115000286A8007F7D41FB1E86920F08050E86161
:10116000E069A8B36968C1F38101022946D0022869
:10117000484606D0C8F86000FFF758FD044639E03D
:1011800035E04746C8F86000FFF750FD064604E02A
:10119000FFF74CFD801B022829D828688001F7D46E
:1011A000206AB0F5803F05D16868A16820F400305E
:1011B00008436860D4E908010843696821F47411A0
:1011C00008436860C7F860A0FFF730FD044605E0FB
:1011D00023E0FFF72BFD001B022808D828688001B8
:1011E000F7D51AE0FFF722FD001B022802D90320E1
:1011F000BDE8F88F28688001F4D40EE00128F7D00C
:101200006868226A00F48031914204D1616A00F476
:101210007010884201D00120EAE70020E8E70000D2
:1012200000100240000042428004424218000020A8
:101230000070004070B5040009D0606A002540B11C
:1012400025616561A56294F8510040B10CE0012070
:1012500070BD6068B0F5827FF4D0E561F2E784F894
:101260005050204600F040F8022084F851002068D9
:10127000016821F040010160A088218900F482709A
:1012800001F404410843A18901F400610843217C71
:1012900001F002010843217D01F001010843218B87
:1012A00001F400710843217F01F03801084394F8EC
:1012B000201001F080010843218D01F40051084302
:1012C00021680860A069042101EA10402168486093
:1012D0002068C16921F40061C1616565012084F85D
:1012E0005100002070BD000030B585B0002400948E
:1012F000019402940394234D01682348022203239E
:10130000A94216D1816941F480518161816901F45A
:1013100080510491816941F00401816180696946CD
:1013200000F004000490A020CDE9000203931748C8
:1013300023E0174DA94222D1C16941F48041C16126
:10134000C16901F480410491816941F00801816122
:101350008069104D00F0080004904FF42040CDE962
:101360000002694603932846FFF770FB4FF4804064
:10137000CDE90004694628460294FFF767FB05B0F3
:1013800030BD000000300140001002400008014064
:1013900000380040000C01402DE9F84F044690F859
:1013A000500000261D4690468A4601280ED04FF078
:1013B000010984F85090FFF739FC074694F8510072
:1013C0004146B346012804D0022696E00220BDE83B
:1013D000F88FBAF1000F6ED0B8F1000F6BD0032078
:1013E00084F85100C4F854B0C4F830A0A4F8348094
:1013F000A4F83680C4F838B0A4F83CB0A4F83EB0E5
:10140000C4F844B0C4F840B0A068B0F5004F09D1AA
:101410002068026822F0400202602068026842F4FC
:101420008042026020680268520603D4026842F0DB
:1014300040020260E068B0F5006F606803D038B326
:10144000012925D042E008B101291BD1206B216878
:101450000088C86006E020688168890709D5216B8B
:101460000988C160206B801C2063E08E401EE086EE
:1014700008E0FFF7DBFBC01BA84202D3681C01D0C9
:1014800004E01DB1E08E0028E5D122E0032632E021
:10149000206B21680078087306E02068816889075E
:1014A0000AD5216B09780173206B401C2063E08E04
:1014B000401EE0860AE01CE0FFF7B8FBC01BA84214
:1014C00002D3681C02D0E1E7002DDFD0E08E0028B7
:1014D000E3D13A462946204600F08EFE08B120208E
:1014E0006065A06818B92068C16880680090606D68
:1014F00008B1012601E084F8519084F850B03046DC
:1015000065E710B5401EB0F1807F01D3012010BD0A
:101510004FF0E02460610F21601701F08BFA00208A
:10152000A06107202061002010BD10B590F83C207C
:10153000012A22D0012280F83C20CA688C6822F45B
:10154000407222434C6822F4806222430C6822F4E9
:10155000006222430C6922F4805222434C6922F437
:1015600000522243C969002322F480420A430168E1
:101570004A6480F83C30002010BD022010BD0000FD
:1015800070B590F83C20012A26D0012580F83C5007
:10159000022280F83D2002685368946823F07006A8
:1015A0000B68334353600D4B02689A4208D0B2F186
:1015B000804F05D00A4B9A4202D00A4B9A4204D17E
:1015C000496824F080031943916080F83D50002160
:1015D00080F83C10084670BD022070BD002C014010
:1015E000000400400008004010B5040003D094F847
:1015F0003D0010B107E0012010BD002084F83C0040
:10160000204600F01FF8022084F83D00211D2068CC
:1016100000F058FF012084F8460084F83E0084F86A
:101620003F0084F8400084F8410084F8420084F8C8
:10163000430084F8440084F8450084F83D0000200D
:1016400010BD000008B500680649884208D1064868
:10165000816941F400618161806900F4006000905B
:1016600008BD0000002C01400010024070B5044687
:1016700090F83C000025012817D0012684F83C6032
:10168000022084F83D002068826822F0770222F46C
:101690007F4282600868502838D00DDC20284FD067
:1016A00005DC90B3102811D14AE0022070BD30282B
:1016B00046D040280AD13BE060282FD070280DD0BA
:1016C000B0F5805F03D0B0F5005F12D0012584F83B
:1016D0003D60002084F83C00284670BDCB68D1E90D
:1016E0000121206800F024FF2068816841F0770123
:1016F00009E0CB68D1E90121206800F019FF2068DA
:10170000816841F480418160E1E719E0CA68496875
:10171000206800F0C7FF5021206806E0CA684968C9
:10172000206800F0D0FF6021206800F00BFFCEE7BA
:10173000CA684968206800F0B5FF40212068F4E7D6
:10174000226801461046F0E700B585B000210091FF
:1017500001910291039100680B49884212D10B4814
:10176000816941F0040181618069694600F00400EB
:1017700004904FF480700090022001900390044880
:10178000FFF764F905B000BD002C014000100240D5
:101790000008014070B5044690F83C0000260D4654
:1017A00001280FD0012084F83C006AB1042A1DD022
:1017B000082A2FD00C2A3FD00126002084F83C00B4
:1017C000304670BD022070BD206800F0C3FE206866
:1017D000816941F0080181612068816921F004017B
:1017E0008161206881692A69114311E0206800F055
:1017F000DDFE2068816941F40061816120688169B2
:1018000021F480618161206881692A6941EA0221AD
:101810008161D2E7206800F0F7FE2068C16941F0DD
:101820000801C1612068C16921F00401C16120681B
:10183000C1692A69114311E0206800F011FF206896
:10184000C16941F40061C1612068C16921F480610E
:10185000C1612068C1692A6941EA0221C161ACE71E
:1018600010B5040003D094F83D0010B107E001204A
:1018700010BD002084F83C00204600F01EF8022035
:1018800084F83D00211D206800F01CFE012084F832
:10189000460084F83E0084F83F0084F8400084F855
:1018A000410084F8420084F8430084F8440084F83E
:1018B000450084F83D00002010BD704700BF704710
:1018C00070470000F8B5016804460868CA684B69AB
:1018D00010F00F0F4FF0000559D003F0010602F48D
:1018E0009077374365D0C10705D0D10503D5616C2A
:1018F00041F001016164410705D5D90703D0616C4E
:1019000041F002016164810705D5D90703D0616CFC
:1019100041F004016164010707D502F02001314361
:1019200003D0616C41F008016164616C00293AD018
:10193000800604D5900602D5204600F005FF2068F9
:101940004069616CC0F38010090700D460B3204681
:1019500000F0D3FE20684069400621D5206814308D
:1019600050E8001F21F0400140E80012002AF5D1A4
:10197000E06BA8B16D494163E06BFEF7FFFE002804
:1019800011D0E06B416B01B0BDE8F0400847830621
:101990000FD593060DD52046BDE8F84000F0D4BE23
:1019A0002046FFF78DFFF8BD2046FFF789FF6564ED
:1019B000F8BD266B2023012E7CD1C6067AD5D6062B
:1019C00078D508684868009048694FF002064006DC
:1019D00040D5E16B086840680004000CE8D0A28D97
:1019E0008242E5D9E085886920282DD020680C3016
:1019F00050E8001F21F4807140E80012002AF5D160
:101A00002068143050E8001F21F0010140E8001266
:101A1000002AF5D12068143050E8001F21F0400161
:101A200040E80012002AF5D184F84230256320688E
:101A30000C3050E8001F21F0100140E80012002A8D
:101A4000F5D1E06BFEF776FE6663A08DE18D401A5E
:101A500081B22AE0A08DE18D401A81B2E08D00288C
:101A6000A6D00029A4D020680C3050E8002F22F422
:101A7000907240E80027002FF5D12068143050E81C
:101A8000002F22F0010240E80027002FF5D184F852
:101A90004230256320680C3050E8002F22F01002FD
:101AA00040E80023002BF5D166632046FFF706FFD0
:101AB000F8BDFFE705062BD5150629D594F841009A
:101AC0002128F5D1A068B0F5805F01D12069B0B1BF
:101AD000206A411C2162216800784860E08C401E29
:101AE0000004000CE084E3D12068C16821F080018B
:101AF000C1602068C16841F04001C160D8E7206A38
:101B00000088C0F308004860206A801C2062E5E776
:101B10004006CDD55006CBD5CA68204622F04002FB
:101B2000CA6084F8413000F047F9C1E7EB260008AD
:101B300070B5040004D094F84100002510B106E00F
:101B4000012070BD84F84050204600F023F8242086
:101B500084F841002068C16821F40051C16020462A
:101B600000F054FE2068016921F490410161206871
:101B7000416921F02A0141612068C16841F40051A6
:101B8000C1606564202084F8410084F842006563E8
:101B9000002070BDF0B585B0002504460095019584
:101BA0000295039500682D49884255D12C48C1699A
:101BB00041F48021C161C16901F4802104918169EE
:101BC00041F0080181618069264E00F00800049010
:101BD0004FF480600090022001900320039069463A
:101BE0003046FEF733FFF014CDE900056946304674
:101BF0000295FEF72BFF1D4E1B488027C6E9000506
:101C0000C6E9025720203561C6E905503046F56126
:101C1000FEF7ACFE08B1FEF74BFDE6637462134EAF
:101C200011484436143801C61020A1C60F4846F8A2
:101C3000105944307561B561F561FEF797FE08B142
:101C4000FEF736FDA6630022114627207462FFF7D7
:101C500051F82720FFF740F805B0F0BD00480040DC
:101C600000100240000C01403000024098030020A8
:101C70002DE9F843044690F84200984615460E4672
:101C8000202802D00220BDE8F883AEB1A5B1002023
:101C90006064222184F842102063FEF7C7FFA58507
:101CA0008146E585A0684FF48057B84201D120698C
:101CB00020B13546002626E00120E4E7002522E099
:101CC0004B46002220212046CDF8008000F0FAFD8E
:101CD00008B10320D7E725B1A068B8421BD038B1BE
:101CE00008E020684068C0F3080026F8020B07E00F
:101CF000206980B12068406800F07F0005F8010B82
:101D0000E08D401EE085E08D0028D9D1202084F8A8
:101D100042000020B7E720684068EFE770472DE9F0
:101D2000F843044690F841001F4615460E46202809
:101D300002D00220BDE8F8837EB175B10020606456
:101D4000212084F84100FEF771FFA5848046E584D8
:101D5000A068B0F5805F02D003E00120EAE72069C7
:101D600010B1354600260EE000250CE0802120460B
:101D700000F0A8FDA0B9ADB115F8010B21684860CD
:101D8000E08C401EE084E08C43464FF00002009758
:101D90000028EBD14FF04001204600F093FD30B118
:101DA0000320C7E736F8020BC0F30800E6E720205F
:101DB00084F841000020BDE77047000010B500F036
:101DC00035F90B48002101600A4800F02BF800F0BB
:101DD00017F80120FEF7F8FD002201210648FEF762
:101DE00020FF0022BDE8104010210448FEF719BF73
:101DF0000400002000BC0700000C01400008014066
:101E000010B5074C012210212046FEF70AFF00BF43
:101E100000222046BDE810401021FEF702BF00005E
:101E2000000801400649020E64230A70020C4A7041
:101E3000020A8A70C87004220248FFF7ADBA000097
:101E40000400002058020020FEE770B50C4605464D
:101E500000F0EBFAD02000F0D4FA00F0A9FA08B1B3
:101E6000012070BD284600F0CCFA00F0A1FA08B1BC
:101E7000022070BD00F0D9FAD12000F0C2FA00F0C3
:101E800097FA08B1032070BD00F0A1FA207000F0AD
:101E9000DBFA002070BD70B50C46054600F0C5FAAF
:101EA000D02000F0AEFA00F083FA08B1012070BD36
:101EB000284600F0A6FA00F07BFA08B1022070BDB7
:101EC000204600F09EFA00F073FA08B1032070BDBE
:101ED00000F0BAFA002070BD0D4808B5416941F024
:101EE000010141614069002200F0010000901146AB
:101EF0000C20FEF7FFFE0C20FEF7EEFE002211463E
:101F00000D20FEF7F7FEBDE808400D20FEF7E4BE09
:101F1000001002402DE9F04786B000243E480094AE
:101F2000019402940394816941F0100181618169F7
:101F300001F010010491816941F00401816181691E
:101F400001F004010491816941F008018161806917
:101F5000324F00F008004FF4C0450490002229469B
:101F60003846FEF75EFEDFF8B8A000224FF441616C
:101F70005046FEF756FEDFF8AC90002241F2010118
:101F80004846FEF74EFE0095022601250396CDE950
:101F9000015469463846FEF759FDDFF88C80E803A6
:101FA000CDE90008694602943846FEF74FFD10203F
:101FB0000327CDE90005CDE9024769465046FEF703
:101FC00045FD03970095CDE9015469464846FEF763
:101FD0003DFD2803CDE90005CDE9024669464846A6
:101FE000FEF734FD4FF49050CDE9000869460294A5
:101FF0005046FEF72BFDB802CDE90005CDE90246BB
:1020000069465046FEF722FD002211462820FEF7C1
:1020100071FE06B0BDE8F0870010024000100140DC
:1020200000080140000C014000001110104810B5DC
:102030000E4901604FF48271416000218160C160EE
:102040004FF400720161C0E905120822C0E90721BE
:10205000416281620A21C162FFF7ECF8002803D0D7
:10206000BDE81040FEF724BB10BD00000030014069
:102070005802002010B596B000240F9410941194CB
:10208000129413941C2108A81494FEF765F92021DA
:102090006846FEF761F92A48284901601F21C0E916
:1020A00001144FF4FA71C0E903148021C0E905411D
:1020B000FFF79AFA08B1FEF7FBFA4FF480500F9041
:1020C0000FA91F48FFF7D2FA08B1FEF7F1FA1C4832
:1020D000FFF7C6FB08B1FEF7EBFA139413A91848F3
:1020E0001494FFF74DFA08B1FEF7E2FA6020089069
:1020F000F920CDE909040420CDE90B400D9400221C
:1021000008A90F480E94FFF745FB08B1FEF7D0FA77
:1021100000944FF40050CDE90440029401940394DC
:10212000694607480794FFF700FA08B1FEF7C0FABE
:102130000348FFF709FB16B010BD0000002C01405A
:10214000080300200C4810B50A4901604FF4E13142
:102150004160002181600C22C160C0E904128161EC
:10216000C161FFF7E5FC002803D0BDE81040FEF791
:102170009FBA10BD0048004050030020FEE7000059
:1021800010B5FFF777FFBDE810400148FFF7DCBA54
:1021900008030020064810B58188006889B2FEF760
:1021A0003BFD04460A20FEF721FC204610BD00003E
:1021B000480200200246064810B58189806889B22D
:1021C000FEF72FFDBDE810400A20FEF70FBC00000F
:1021D000480200200246064810B58188006889B28E
:1021E000FEF71FFDBDE810400A20FEF7FFBB000010
:1021F00048020020FEE7704738B50B4600920446BF
:102200000022802100F008F8002804D0606D40F022
:1022100020006065032038BD2DE9F8431E46914635
:1022200088460446089DFEF701FD401B351AFEF75F
:10223000FDFC074625480068C0F3CB30684338E012
:10224000701C37D0FEF7F2FCC01BA84203D215B1B8
:10225000009860B32CE02068416821F0E001416003
:102260006068B0F5827F0BD1A068B0F5004F02D056
:10227000B0F5806F04D12068016821F04001016051
:10228000A06AB0F5005F09D12068016821F400510F
:1022900001602068016841F400510160012084F868
:1022A0005100002084F850000320BDE8F883002589
:1022B000401E00902068816838EA010004D00020A8
:1022C0004845BDD10020F0E70120F9E718000020C3
:1022D000704700002DE9F0430F4605462E492F4870
:1022E00085B01E4614468D4201D08C4207D18169CB
:1022F00041F004018161816901F0040104912849E0
:102300008D4201D08C4207D1816941F00401816185
:10231000816901F00401049122498D4201D08C426F
:1023200007D1816941F004018161816901F00401F3
:1023300004911D498D4201D08C4207D1816941F041
:1023400004018161806900F0040004904FF01108DD
:10235000CDE900784FF0030969462846CDF80C9086
:10236000FEF774FBB9B201222846FEF75AFCCDE90C
:10237000006869462046CDF80C90FEF767FBB1B2C5
:1023800001222046FEF74DFC0848C0E90246C0E99C
:10239000005705B0BDE8F08300080140001002407E
:1023A000000C0140001001400014014048020020D0
:1023B00010B50120FFF70EFF0120FFF7FBFEFFF72E
:1023C000E9FE04460020FFF7F5FE204610BD70B57B
:1023D00000250120FFF7FEFE002480260120FFF7E4
:1023E000E9FEFFF7D7FE012802D126FA04F00543E3
:1023F0000020FFF7DFFE641CE4B2082CEED3284671
:1024000070BD70B500240546802626FA04F02840E9
:10241000FFF7E0FE0120FFF7CDFE0020FFF7CAFE28
:10242000641CE4B2082CF0D370BD10B50120FFF796
:10243000D1FE0120FFF7BEFE0020FFF7CBFEBDE876
:1024400010400020FFF7B6BE10B50020FFF7C2FE17
:102450000120FFF7AFFEBDE810400120FFF7BABE34
:10246000FEF7EABB30B58FB028216846FDF774FF50
:1024700014210AA8FDF770FF0224012004900094A3
:102480001020059000254FF46010CDE90850079406
:102490006846FEF743FD08B172B6FEE70AA90F20B1
:1024A00081E831004FF48060CDE90D0502210AA8D2
:1024B000FEF752FC002801D072B6FEE70FB030BD27
:1024C00070470000F0B50268164C174D174E4FF0DC
:1024D0008047A04205D0B84203D0A84201D0B04204
:1024E00003D122F070034A681A43A04205D0B842D3
:1024F00003D0A84201D0B04203D122F44073CA688D
:102500001A434B6922F080021A4302608A68C26251
:102510000A688262A04201D1096901630121416117
:10252000F0BD0000002C0140000400400008004005
:1025300010B5846842EA032224F47F440A4322430C
:10254000826010BD826822F070020A4342F00701E7
:102550008160704730B5026A036A23F001030362A9
:102560004368846924F073050C682C4322F002054B
:102570008A682A430C4DA84206D122F00805CA6891
:1025800042EA050222F0040207D14D6923F44073A8
:1025900045EA03058B6943EA0503436084614968A2
:1025A0004163026230BD0000002C014030B5036A77
:1025B000026A22F010020262426884690D6824F403
:1025C000E64444EA05248D6823F0200343EA05131A
:1025D0000C4DA84206D1CD6823F0800343EA0513D1
:1025E00023F0400307D14D6922F4406242EA85029C
:1025F0008D6942EA850242608461496881630362B1
:1026000030BD0000002C014030B5026A036A23F49B
:10261000807303624368C46922F4007224F0730576
:102620000C682C438D6842EA05220C4DA84206D165
:10263000CD6822F4006242EA052222F4806207D1CA
:102640004D6923F4405343EA05138D6943EA0513AA
:102650004360C4614968C163026230BD002C01401F
:1026600030B5046A026A22F4805202624268C36989
:102670000D6823F4E64343EA05238D6824F40054EF
:1026800044EA0534064DA84204D14D6922F4804243
:1026900042EA85124260C36149680164046230BD48
:1026A000002C014010B5046A036A23F001030362A1
:1026B000836923F0F00343EA021324F00A020A4379
:1026C0008361026210BD10B5036A046A24F010042D
:1026D0000462846923F0A00324F4704444EA0232C3
:1026E00043EA01118261016210BD10B5406A002108
:1026F000C185C184FFF7E4F810BD01680C3151E8D1
:10270000002F22F4907241E80023002BF5D10168DC
:10271000143151E8002F22F0010241E80023002B80
:10272000F5D1016B012909D101680C3151E8002F65
:1027300022F0100241E80023002BF5D1202180F87F
:10274000421000210163704708B590F84210222919
:1027500001D0022008BD81684FF48053994201D115
:10276000026922B1826A99421BD049B10AE002682B
:10277000816A5268C2F308020A80816A891C08E0F3
:10278000016971B10168496801F07F011170816AC6
:10279000491C8162C18D491E0904090CC18503D001
:1027A0001BE001684968F1E70168CA6822F020026D
:1027B000CA600168CA6822F48072CA6001684A6906
:1027C00022F001024A61202180F842100021416379
:1027D000026B012A03D0FFF7A1FA002008BD0163B4
:1027E00001680C3151E8002F22F0100241E800236B
:1027F000002BF5D101680A68D20602D50A6849683B
:102800000091818DFFF75AF8E7E7000070B50446A4
:1028100000680169E26821F4405111430161A16837
:1028200020690143606901432068C26841F20C637A
:102830009A430A43C26020684169A26921F4407149
:10284000114341611E492068884202D1FEF730FBE6
:1028500001E0FEF71DFB00EBC00101EB0011606819
:1028600064228000B1FBF0F3B3FBF2F36FF01806C3
:102870007343B1FBF0F5B1FBF0F605EB83053223B2
:1028800003EB0515B5FBF2F5B6FBF2F605F0F00526
:1028900005EB0615B1FBF0F6B1FBF0F0B0FBF2F082
:1028A0006FF01801484306EB800003EB0010B0FB0B
:1028B000F2F0216800F00F002844886070BD00002D
:1028C000003801402DE9F0411E461746884604466F
:1028D000069D26E0681C24D025B1FEF7A7F9801BD1
:1028E000A8421ED920680C3050E8001F21F4D07196
:1028F00040E80012002AF5D12068143050E8001F8B
:1029000021F0010140E80012002AF5D1202084F8CE
:10291000410084F84200002084F840000320BDE814
:10292000F0812068016838EA010004D00020B84234
:10293000D0D00020F3E70120F9E700000148FEF7BE
:10294000C1BF000050030020FEE7000070B5354C09
:102950000A26354DA078B0FBF6F055F8200040F47B
:102960008020FFF75FFAFFF74BFA0120FEF72CF803
:10297000A078B0FBF6F106FB11002C4955F82000B9
:102980000843FFF74FFAFFF73BFA0120FEF71CF868
:102990006078B0FBF6F055F8200040F48030FFF787
:1029A00041FAFFF72DFA0120FEF70EF86078B0FB30
:1029B000F6F106FB110048F2080155F82000084323
:1029C000FFF730FAFFF71CFA0120FDF7FDFF207832
:1029D000B0FBF6F055F8200040F40050FFF722FA63
:1029E000FFF70EFA0120FDF7EFFF2078B0FBF6F1BC
:1029F00006FB110041F2080155F820000843FFF7DB
:102A000011FAFFF7FDF90120FDF7DEFF40F2044067
:102A1000FFF708FAFFF7F4F9BDE870400120FDF771
:102A2000D3BF00003C020020942A000808000200E6
:102A3000FFF7C4B90907090E002804DB00F1E02004
:102A400080F80014704700F00F0000F1E02080F8DB
:102A5000141D704700F00F01000900EB800001EB2E
:102A60004000C0B27047FEF7EFF8FFF7FBFCFFF73E
:102A700051FAFFF731FAFDF76DFDFFF781FBFFF724
:102A8000D7FFFDF71FFE2820FEF726F9FFF75EFFB0
:102A9000FCE700006503000005000000E102000003
:102AA000A502000085010000A4030000E40300006B
:102AB00005020000E5030000A5030000020000007D
:102AC00008000000434F4E4E4543540041542B43F1
:102AD000495053544152543D22554450222C2231E6
:102AE0002E636E2E706F6F6C2E6E74702E6F726709
:102AF000222C3132330D0A00E30006EC0000000006
:102B0000000000000314E313400000000000000078
:102B100000000000000000000000000000000000B5
:102B20000000000000000000CC2A00082B0000007C
:102B3000C42A0008520064002B4950442C34383A0F
:102B4000004F4B0041542B43495053454E443D00E8
:102B500041540D0A0041542B43574D4F44453D31DC
:102B60000D0A0041542B43574A41503D22434D43E7
:102B7000432D3138363031222C22647A687931384D
:102B8000363031220D0A0041542B4349504D5558DF
:102B90003D300D0A00000000502B0008040000002A
:102BA000412B00080B006400552B00080D000000AD
:102BB000412B000814006400632B00082300000070
:102BC000412B000858008813872B00080D000000D7
:102BD000412B0008140064000102020304050607EB
:102BE00008090A0B0C0D0E0F101000000000000069
:102BF00000000102030406070809000000000102AA
:102C000003040000242C0008000000201C00000029
:102C100028010008402C00081C000020640A000065
:102C20004401000800000000000000000000000057
:102C30000100000010000000000000000024F4006B
:04000005080000ED02
:00000001FF
